:100000000FC033C032C031C030C02FC02EC02DC091
:100010002CC02BC02AC029C028C027C026C06D0B09
:1000200011241FBECFE5D2E0DEBFCDBF10E0A0E6B9
:10003000B0E0EAEBFAE102C005900D92A638B107F4
:10004000D9F720E0A6E8B0E001C01D92A83AB207B7
:10005000E1F710E0C0E1D0E003C02197FE016FDBC3
:10006000CF30D107D1F709DA26CDCACFFC01138AE8
:10007000128A0895FB01908181E0983261F030F49A
:10008000903151F0923231F080E008959B3311F0BD
:100090009234D1F7089508950895FC01778366831B
:1000A00014821582108289E0818381E082838383B8
:1000B0000895CF93DF93EC01F0DF1B8A1A8ADF915A
:1000C000CF910895FC0184810895FC0185810895F4
:1000D000CF93DF93EB0167E0CE017DD9982F81E0CC
:1000E0002F81291380E0DF91CF910895EF92FF9245
:1000F0000F931F93CF93DF93EC018B01E42E8E813E
:100100009F81BED8F12C41E0B8018E819F81E4D857
:10011000882329F0EF1429F0F394EF14A0F780E07E
:1001200005C0B801CE01D4DF8823B1F3DF91CF91B0
:100130001F910F91FF90EF900895EF92FF920F9310
:100140001F93CF93DF93EC018B017A018E819F8106
:1001500041D78823E9F0B8018E819F8163D840E0C0
:100160006EEB8E819F81C3D7870189E0E80EF11C79
:100170008E819F8121D8F80181938F01EE15FF05B3
:10018000B9F78E819F8126D7982F81E0913009F0B1
:1001900080E0DF91CF911F910F91FF90EF90089534
:1001A000CF93DF93EA01C9DF882341F068E0CE01F5
:1001B00012D9982F81E02885291380E0DF91CF9113
:1001C0000895CF93DF93CDB7DEB729970FB6F89494
:1001D000DEBF0FBECDBFAE014F5F5F4FE1DF29969F
:1001E0000FB6F894DEBF0FBECDBFDF91CF9108955B
:1001F000EF92FF920F931F93CF93DF93EC018B014C
:100200007A018E819F81E6D6B8018E819F810AD8BE
:1002100040E06EE48E819F816AD740E0F701628101
:100220008E819F8164D740E0F70163818E819F8139
:100230005ED7F8018081803131F040E0F7016481C0
:100240008E819F8154D78E819F81C4D6B8018E81C3
:100250009F81E8D7488168E48E819F8148D78FE3EA
:100260009CE90197F1F700C000008881882331F0F4
:10027000EFE1FEE43197F1F700C000008E819F812D
:10028000DF91CF911F910F91FF90EF90A3C60F9335
:100290001F93CF93DF93EC018B018E819F819AD6C0
:1002A000B8018E819F81BED740E064EB8E819F8133
:1002B0001ED78E819F81F8D6182F8E819F818AD676
:1002C00081E0111180E0DF91CF911F910F9108958E
:1002D000FC0181810895CF93DF93CDB7DEB72997D5
:1002E0000FB6F894DEBF0FBECDBFFB0120812031D9
:1002F000D1F0AE014F5F5F4F53DF8823D1F08D8186
:100300008F3599F070F48F3191F08F3391F48AE04A
:1003100029960FB6F894DEBF0FBECDBFDF91CF9107
:1003200008958F3731F48CE0F3CF8BE0F1CF89E083
:10033000EFCF80E0EDCFFF920F931F93CF93DF932A
:10034000CDB7DEB728970FB6F894DEBF0FBECDBF8E
:100350008C01FC018681978193D7F8011482158264
:1003600041E0BE016F5F7F4FF80186819781B4D76E
:100370008823B9F1BE016F5F7F4FC801A9DE8823D2
:1003800079F3F801808181110AC0BE016F5F7F4F50
:10039000C8017DDF882319F081E0F8018083F8012E
:1003A000F180BE016F5F7F4FC80195DF8F1598F414
:1003B000F8018181F801818384818F5F8483BE018C
:1003C0006F5F7F4FC80156DE882351F2F8018581A7
:1003D0008F5F8583C5CFBE016F5F7F4FC8017BDF15
:1003E000E9CF28960FB6F894DEBF0FBECDBFDF91E0
:1003F000CF911F910F91FF900895AF92BF92CF922E
:10040000DF92EF92FF920F931F93CF93DF93CDB7BD
:10041000DEB761970FB6F894DEBF0FBECDBF8C017B
:100420006B01F42EA22EE42E8CE08417D8F49CE00D
:10043000E92EB601C8014FDF8E111AC0BB24B39458
:100440008B2D61960FB6F894DEBF0FBECDBFDF9146
:10045000CF911F910F91FF90EF90DF90CF90BF90C1
:10046000AF900895E9E04E1720F789E0E82EE1CF3C
:10047000AE014F5F5F4FB601C80192DEB82E8823F0
:10048000F9F2F60180818031C9F2FBE08FE5FF16B9
:1004900039F08FE7FF1520F08AE0F81235C08FE3BE
:1004A0008D83AE014F5F5F4FB601C801A1DEF80139
:1004B00081818E1508F48E2DF8018183A110BECFA5
:1004C000E81608F0BBCFE182F12CE12CF801848121
:1004D0008E151F0409F00CF4B3CF4E2DBE01665FDC
:1004E0007F4FC80103DEF801D180BE01665F7F4FF8
:1004F000C801F1DE8D1550F4F8018181F801818386
:10050000FFEFEF1AFF0AE2CF8FE1CACFBE01665FAD
:100510007F4FC801E0DEF2CFEF92FF920F931F935F
:10052000CF93DF93CDB7DEB728970FB6F894DEBF31
:100530000FBECDBF8C016D3008F06CE0693008F45F
:1005400069E0F8016183F12CE12CF80184818E15BA
:100550001F0499F094F04E2DBE016F5F7F4FC801CC
:10056000C5DD21E0F8014181BE016F5F7F4FC80109
:1005700044DFFFEFEF1AFF0AE8CF28960FB6F89492
:10058000DEBF0FBECDBFDF91CF911F910F91FF90C6
:10059000EF900895FC0162830895FC018281089523
:1005A000FC0163830895FC0183810895FC01868129
:1005B00097817AD5982F81E0913009F080E00895F5
:1005C0000F931F93CF93DF93EC0169500EEE12E06F
:1005D000633040F4E62FF0E0EE0FFF1FE05AFF4FCC
:1005E000008111818B818823A9F08881811112C03B
:1005F000CE01DCDF8823E1F38FEC97E00197F1F780
:1006000000C0000001501109B9F7DF91CF911F918F
:100610000F9108958FEC97E00197F1F700C000006B
:1006200001501109B9F7F1CFCF93DF93EC018E811F
:100630009F81D0D48E819F8112D6488164E48E81BF
:100640009F8155D58A81882329F06981CE01DF9168
:10065000CF91B6CFDF91CF910895FF920F931F9363
:10066000CF93DF93EC01F62E172F35DE082F88236A
:10067000D1F08E819F81AED46F2D712F8E819F819D
:10068000D1D5488164E48E819F8131D51A811123AF
:1006900061F0602FCE0194DF812FDF91CF911F9108
:1006A0000F91FF90089510E0F7CF11E0F5CF69505A
:1006B000633048F4E62FF0E0EE0FFF1FE05AFF4FE3
:1006C0008081918108958EEE92E008950F931F939B
:1006D000CF93DF93CDB7DEB728970FB6F894DEBF80
:1006E0000FBECDBF8C01462FBE016F5F7F4FFEDC7A
:1006F000BE016F5F7F4FC801B0DF28960FB6F89438
:10070000DEBF0FBECDBFDF91CF911F910F91089536
:10071000FA01218130E0322F2227330F330F330FBC
:10072000808190E0B3E0880F991FBA95E1F7282BFC
:10073000392BDB018C918031B9F4678170E08681BF
:10074000AB01481B5109CA019695982F88279795A8
:100750008795CED76051710953E0220F331F5A9508
:10076000E1F72078260F371FC9010895EF92FF9215
:100770000F931F93CF93DF93CDB7DEB729970FB6B3
:10078000F894DEBF0FBECDBF8C017B01AE014F5F81
:100790005F4F06DD882399F0AE014F5F5F4FB701D1
:1007A000C801B6DF29960FB6F894DEBF0FBECDBFE5
:1007B000DF91CF911F910F91FF90EF90089580E806
:1007C00094EEF0CFCF93DF9300D000D0CDB7DEB75B
:1007D000CDDF9C01213884EE38073CF1C901330F8D
:1007E000AA0BBB0B89839A83AB83BC83BC01CD016D
:1007F00043D820E030E040E05CE369837A838B8378
:100800009C8369817A818B819C81EAD869837A8310
:100810008B839C8369817A818B819C810F900F905F
:100820000F900F90DF91CF91089560E070E08EEF10
:1008300092ECECCF0F931F93CF93DF93CDB7DEB73E
:100840002C970FB6F894DEBF0FBECDBF8C01462F9C
:10085000BE016F5F7F4F4ADC8823C1F0BE016F5F2E
:100860007F4FC801AFDF69877A878B879C8769854F
:100870007A858B859C852C960FB6F894DEBF0FBECB
:10088000CDBFDF91CF911F910F91089560E070E08F
:100890008EEF92ECE8CFFC0180810895CF93DF9337
:1008A000CDB7DEB729970FB6F894DEBF0FBECDBF28
:1008B000AE014F5F5F4F74DC882381F08B8190E045
:1008C000982F88272C81820F911D29960FB6F894B6
:1008D000DEBF0FBECDBFDF91CF91089590E080E0E5
:1008E000F4CFCF92DF92EF92FF920F931F93CF93AB
:1008F000DF93CDB7DEB729970FB6F894DEBF0FBEF2
:10090000CDBF7C016B018A01C9DF8017910799F087
:10091000AE014F5F5F4FB601C70142DC882359F03B
:100920001027012710271C830B83AE014F5F5F4FF9
:10093000B601C7015DDC29960FB6F894DEBF0FBE85
:10094000CDBFDF91CF911F910F91FF90EF90DF907E
:10095000CF9008950F931F93CF93DF93CDB7DEB75A
:1009600028970FB6F894DEBF0FBECDBF8C01462F7F
:10097000BE016F5F7F4FBADBBE016F5F7F4FC80163
:100980008DDF28960FB6F894DEBF0FBECDBFDF9186
:10099000CF911F910F910895EF92FF920F931F93A4
:1009A000CF93DF93CDB7DEB728970FB6F894DEBFAD
:1009B0000FBECDBF8C017A01462FBE016F5F7F4F06
:1009C00095DBA701BE016F5F7F4FC8018ADF2896C4
:1009D0000FB6F894DEBF0FBECDBFDF91CF911F9150
:1009E0000F91FF90EF900895CF93DF9300D000D048
:1009F000CDB7DEB726E636E646EE5FE369837A8357
:100A00008B839C8369817A818B819C81E9D720E0EB
:100A100030E040E052E469837A838B839C83698170
:100A20007A818B819C8192D669837A838B839C8324
:100A300069817A818B819C810F900F900F900F902C
:100A4000DF91CF910895CF93DF9300D000D0CDB741
:100A5000DEB720E030E040E052E469837A838B83A4
:100A60009C8369817A818B819C816FD624EE38E3E7
:100A70004EE05FE369837A838B839C8369817A810B
:100A80008B819C81ADD769837A838B839C836981B9
:100A90007A818B819C810F900F900F900F90DF9146
:100AA000CF910895CF93DF9300D000D0CDB7DEB7BC
:100AB0009C01213884EE38073CF1C901330FAA0BA1
:100AC000BB0B89839A83AB83BC83BC01CD01D4D695
:100AD00020E030E040E05CE369837A838B839C8391
:100AE00069817A818B819C817BD769837A838B83AF
:100AF0009C8369817A818B819C810F900F900F90EC
:100B00000F90DF91CF91089560E070E08EEF92EC4E
:100B1000ECCFCF93DF9300D000D0CDB7DEB79C01F0
:100B2000213884EE3807A4F1C901330FAA0BBB0B9F
:100B300089839A83AB83BC83BC01CD019DD626E615
:100B400036E646E65CE369837A838B839C8369811E
:100B50007A818B819C8144D720E030E040E052E4F0
:100B600069837A838B839C8369817A818B819C8161
:100B7000EDD569837A838B839C8369817A818B81AC
:100B80009C810F900F900F900F90DF91CF9108955F
:100B90006AE979E984E493ECECCFE8DDBACF0F930E
:100BA0001F93CF93DF93CDB7DEB72C970FB6F89492
:100BB000DEBF0FBECDBF8C01462FBE016F5F7F4FE2
:100BC00095DA8823C1F0BE016F5F7F4FC801E5DF72
:100BD00069877A878B879C8769857A858B859C85D1
:100BE0002C960FB6F894DEBF0FBECDBFDF91CF912C
:100BF0001F910F9108956AE979E984E493ECE8CFB5
:100C0000CF93DF93CDB7DEB729970FB6F894DEBF49
:100C10000FBECDBFAE014F5F5F4FC2DA882351F0E8
:100C20008B8129960FB6F894DEBF0FBECDBFDF9142
:100C3000CF91089581E8F5CFDF92EF92FF920F9365
:100C40001F93CF93DF93CDB7DEB729970FB6F894F4
:100C5000DEBF0FBECDBFF82E092FD62EE72E142FE4
:100C6000CFDF8117D1F0AE014F5F5F4F6D2D7E2D2D
:100C70008F2D902F95DA882381F0412F193C0CF4A9
:100C800049EC4E370CF04DE74B83AE014F5F5F4FA1
:100C90006D2D7E2D8F2D902FABDA29960FB6F894FF
:100CA000DEBF0FBECDBFDF91CF911F910F91FF909F
:100CB000EF90DF900895CF93DF93CDB7DEB72997FC
:100CC0000FB6F894DEBF0FBECDBFAE014F5F5F4FD2
:100CD00067DA882351F08C8129960FB6F894DEBF2D
:100CE0000FBECDBFDF91CF91089581E8F5CFDF92A0
:100CF000EF92FF920F931F93CF93DF93CDB7DEB7A1
:100D000029970FB6F894DEBF0FBECDBFF82E092F7E
:100D1000D62EE72E142FCFDF8117D1F0AE014F5F13
:100D20005F4F6D2D7E2D8F2D902F3ADA882381F025
:100D3000412F193C0CF449EC4E370CF04DE74C8335
:100D4000AE014F5F5F4F6D2D7E2D8F2D902F50DAAE
:100D500029960FB6F894DEBF0FBECDBFDF91CF91BD
:100D60001F910F91FF90EF90DF900895FC018FEF9E
:100D7000808B118A1086118612861386148615863A
:100D8000168608959F92AF92BF92CF92DF92EF9214
:100D9000FF920F931F93CF93DF93EC01E62EB72EB4
:100DA0008989882369F080E0DF91CF911F910F91AD
:100DB000FF90EF90DF90CF90BF90AF909F900895FD
:100DC0008E819F8107D1882371F340E06CEE8E8184
:100DD0009F818DD110E000E0AA24A39499249A94D5
:100DE000CC24C394D12C8E819F815ED1F82E8E812C
:100DF0009F815AD1902F969596959695202F277082
:100E0000A60102C0440F551F2A95E2F79A01FF2060
:100E100009F18111C8CFFE01E90FF11D8085282B52
:100E200020876F2D8E819F810ED10F5F1F4F003461
:100E30001105C9F6AA2011F081E0898B2896EE2DC4
:100E4000FB2DCF01089629912193E817F907D9F7CF
:100E500081E0AACFE92FF0E0811117C04889042E64
:100E6000000C550B4017510721F4988AFF24F39486
:100E7000D2CF041715077CF4DE01AE0FBF1F189602
:100E80008C91822399F7902EA12CEC0FFD1F2095B9
:100E900080852823C5CF088BF7CFDF92EF92FF9292
:100EA0000F931F93CF93DF93CDB7DEB729970FB67C
:100EB000F894DEBF0FBECDBFF82E092FD62EE72E39
:100EC000AE014F5F5F4F6CD9182F8823A1F0AE01A0
:100ED0004F5F5F4F6D2D7E2D8F2D902F19DC880F6A
:100EE000892F881F990B9C8198172CF411E09B8106
:100EF00089170CF410E0812F29960FB6F894DEBF05
:100F00000FBECDBFDF91CF911F910F91FF90EF905A
:100F1000DF9008950F931F93CF93DF93CDB7DEB784
:100F200028970FB6F894DEBF0FBECDBF8C011EDF31
:100F3000BE016F5F7F4FC80125DF28960FB6F8947A
:100F4000DEBF0FBECDBFDF91CF911F910F910895EE
:100F50000F931F93CF93DF93CDB7DEB728970FB6CC
:100F6000F894DEBF0FBECDBF8C01DC0152968D918F
:100F70009C91892BC1F0C801F9DEBE016F5F7F4FE4
:100F8000C80100DF882379F0BE016F5F7F4FC80181
:100F90009FD8882391F3D8015296ED91FC91CE0110
:100FA00001960995EACF28960FB6F894DEBF0FBEDA
:100FB000CDBFDF91CF911F910F910895FC01738BED
:100FC000628B0895FC0181E022893389232B09F487
:100FD00080E00895FC0190810180F281E02DF89479
:100FE0008181292F20958223818378948DE78150F8
:100FF00049F135E03A95F1F7000030813923B9F332
:10100000F8948281822382838181892B81837894E1
:10101000AFEBB3E01197F1F700C00000F8948181C5
:1010200082238183BAEBBA95F1F700C080819823BF
:1010300081E009F080E07894E3E3F3E03197F1F7A1
:1010400000C000000895FC0180810180F281E02D44
:10105000282F209560FF14C0F894928192239283E8
:101060009181982B91839AE19A95F1F700C0928132
:10107000892B8283789482E98A95F1F700C00895DC
:10108000F8949281922392839181982B91839DEA87
:101090009A95F1F700009281892B828378948DE0F4
:1010A0008A95F1F700000895FC0180810180F281AA
:1010B000E02DF8949181982B91832281382F3095DF
:1010C0002323228328E02A95F1F7918193239183AA
:1010D0009AE19A95F1F700C0908178942DE82A95CD
:1010E000F1F70000982381E009F480E00895DF9291
:1010F000EF92FF920F931F93CF93DF93EC01D62EC5
:10110000142F88E0E82EF12C01E061E08D2D802382
:1011100009F460E0CE0197DF000F81E0E81AF108E2
:10112000A1F7111110C0F894E981FA8191818881A9
:10113000809589238183E981FA81928188818095D4
:10114000892382837894DF91CF911F910F91FF9033
:10115000EF90DF900895CF92DF92FF920F931F934D
:10116000CF93DF93EC01F22E8B016B01C40ED51EE1
:101170000C151D0539F0F80161918F0140E0CE0199
:10118000B6DFF6CFF11010C0F894E981FA819181B1
:101190008881809589238183E981FA819281888180
:1011A0008095892382837894DF91CF911F910F914D
:1011B000FF90DF90CF900895EF92FF920F931F93CF
:1011C000CF93DF93F82EE92E08E010E0C0E0D1E0E5
:1011D0008F2D9E2D69DF8111CD2BDD0F015011095F
:1011E000B9F78C2FDF91CF911F910F91FF90EF9066
:1011F0000895EF92FF920F931F93CF93DF938C018B
:10120000EB017B01E40EF51ECE15DF0521F0C801D0
:10121000D3DF8993F9CFDF91CF911F910F91FF9089
:10122000EF900895EF92FF920F931F93CF93DF9368
:101230008C017B0140E065E55ADFE70188E0E80EBC
:10124000F11C699140E0C80152DFCE15DF05C9F7F6
:10125000DF91CF911F910F91FF90EF90089540E0A3
:101260006CEC45CFFC01F894A181B28111969C9160
:10127000119780818095892311968C937894089595
:10128000FC01138615861486128611861086178235
:1012900016821582148213820895DC01FB0191816C
:1012A000242F2095922391838281822382834C93E1
:1012B00012967C936E931197CD01E2CFFC0163836C
:1012C000148215821682178210861186128680E497
:1012D0008387148615860895BF92CF92DF92EF928E
:1012E000FF920F931F93CF93DF93EC01B62EC72E7F
:1012F000142F8D85811104C0CE016CDE81110EC0CA
:101300001B861D861C8680E0DF91CF911F910F9177
:10131000FF90EF90DF90CF90BF90089540E060EF96
:10132000111101C06CEECE01E2DEFF24F394E12C3A
:10133000D12C11E0CE01B8DE082FCE01B5DE013090
:10134000C1F4813099F51134D8F2DB86D11002C096
:1013500081E08D878B81882399F22396EB2DFC2DDC
:10136000CF010896299121938E179F07D9F781E025
:10137000CBCFEE2DF0E008130FC08B851817A0F42B
:10138000DE01AE0FBF1F13968C918F2179F400E020
:10139000193008F41C87D12EEC0FFD1F83819F2D7F
:1013A00090958923838309C08113F1CFFE01EE0D4F
:1013B000F11D83818F29838301E0602FCE0143DEFD
:1013C0001F5FFF0C19F4E394FF24F39487E08E155C
:1013D00008F0B0CFB8CF282F80E06150A8F0A22F3E
:1013E000B92FED918E27E82FEF70F0E0EA59FF4F0B
:1013F000908182958F70E82FF0E0EA59FF4F808945
:1014000089272A2F9B2FE9CF0895FC01680F791FA8
:10141000CA01E617F707C9F021918227282F2295E4
:101420002827022E269526952025022E2695202552
:101430002770082E892F269507942795902D8227AF
:101440000694279590258227E4CF0895CF93DF93C4
:10145000EA01A901DADF80959095288130E08217B2
:10146000130639F4292F3327998181E09217130647
:1014700009F080E0DF91CF910895CDB7DEB72997CD
:101480000FB6F894DEBF0FBECDBFB99A1FBC10BE19
:1014900080B7806E80BF8CB582608CBD80B7836062
:1014A00080BF80E58DBD8AE08EBD84E0B82E512CD2
:1014B000412C312C212C00E010E01986188686E89A
:1014C00090E0B2D82FEF89E698E12150804090401B
:1014D000E1F700C0000060E086E890E0ABD9662E3E
:1014E0007D838E839F8320E030E040EA51E469836E
:1014F0007A839E819B838F818C8369817A818B81A2
:101500009C8123D1F62EE72ED82EC92E2DEC3CEC53
:101510004CE050E469837A838B839C8369817A8170
:101520008B819C815DD2A62E972E882E792E23E367
:1015300033E343EB5FE309831A8399859B838885B3
:101540008C8369817A818B819C814AD29B01AC0119
:10155000A9829A828B827C8269817A818B819C812B
:10156000F5D0A62E972E882E792E252D342D432D9D
:10157000522DF982EA82DB82CC8269817A818B8169
:101580009C81E3D026E636E646E250E469837A831E
:101590008B839C8369817A818B819C8121D29B0181
:1015A000AC01A9829A828B827C8269817A818B814B
:1015B0009C81CCD0762E872E982EA92E20E030E06C
:1015C00040EA50E469837A838B839C8369817A81C2
:1015D0008B819C811FD187FF63C01EBCB39425E023
:1015E000B21259C020E030E040EE51E469828D81B2
:1015F0008A839E819B838F818C8369817A818B8191
:101600009C81A3D04B015C0120E030E0A9016983FB
:101610009A828B83BC8269817A818B819C81DCD1A7
:10162000181684F020E030E0A90109831A83998517
:101630009B8388858C8369817A818B819C81CCD1C5
:10164000181684F49401A50109831A8399859B8354
:1016500088858C8369817A818B819C8177D08B018D
:101660008987988720E030E040E752E409831A83B5
:1016700099859B8388858C8369817A818B819C8104
:10168000ABD1B12C18164CF400E010E090E799872C
:1016900022E4288702C072016101270116010FCFE1
:1016A00020E030E040E752E479828A829B82AC827B
:1016B00069817A818B819C818FD118161CF490E509
:1016C0009EBD8CCF79828A829B82AC8269817A812D
:1016D0008B819C81A3D06EBD81CF48E066E370E032
:1016E0008AE990E0DADD6AE970E086E890E0E1C43A
:1016F00097FB072E16F4009406D077FD08D00BD088
:1017000007FC05D03EF4909581959F4F0895709504
:1017100061957F4F0895AA1BBB1B51E107C0AA1F0B
:10172000BB1FA617B70710F0A61BB70B881F991F82
:101730005A95A9F780959095BC01CD010895EE0FBB
:10174000FF1F0590F491E02D09945058BB27AA275C
:101750000ED008C1F9D030F0FED020F031F49F3F18
:1017600011F41EF4EEC00EF4E095E7FBE4C0E92F9F
:101770000AD180F3BA17620773078407950718F038
:1017800071F49EF522C10EF4E0950B2EBA2FA02D18
:101790000B01B90190010C01CA01A0011124FF271E
:1017A000591B99F0593F50F4503E68F11A16F04019
:1017B000A22F232F342F4427585FF3CF4695379518
:1017C0002795A795F0405395C9F77EF41F16BA0BDD
:1017D000620B730B840BBAF09150A1F0FF0FBB1F8B
:1017E000661F771F881FC2F70EC0BA0F621F731FD4
:1017F000841F48F4879577956795B795F7959E3F31
:1018000008F0B3CF9395880F08F09927EE0F9795BE
:10181000879508956CD008F481E00895BCD088F0D5
:101820009F5790F0B92F9927B751A0F0D1F0660FCC
:10183000771F881F991F1AF0BA95C9F712C0B130E7
:1018400081F0C3D0B1E00895C0C0672F782F8827FA
:10185000B85F39F0B93FCCF3869577956795B39526
:10186000D9F73EF490958095709561957F4F8F4F95
:101870009F4F0895E89409C097FB3EF4909580959A
:10188000709561957F4F8F4F9F4F9923A9F0F92F46
:1018900096E9BB279395F695879577956795B795C4
:1018A000F111F8CFFAF4BB0F11F460FF1BC06F5FAA
:1018B0007F4F8F4F9F4F16C0882311F096E911C0BC
:1018C000772321F09EE8872F762F05C0662371F0DD
:1018D00096E8862F70E060E02AF09A95660F771FF1
:1018E000881FDAF7880F9695879597F90895990FCD
:1018F0000008550FAA0BE0E8FEEF16161706E807DA
:10190000F907C0F012161306E407F50798F0621BFA
:10191000730B840B950B39F40A2661F0232B242BCF
:10192000252B21F408950A2609F4A140A6958FEFEE
:10193000811D811D089597F99F6780E870E060E040
:1019400008959FEF80EC089500240A941616170658
:1019500018060906089500240A94121613061406A0
:1019600005060895092E0394000C11F4882352F003
:10197000BB0F40F4BF2B11F460FF04C06F5F7F4FBB
:101980008F4F9F4F089557FD9058440F551F59F0A2
:101990005F3F71F04795880F97FB991F61F09F3F5C
:1019A00079F087950895121613061406551FF2CF85
:1019B0004695F1DF08C0161617061806991FF1CFD5
:1019C00086957105610508940895E894BB276627FC
:1019D0007727CB0197F908958ADF08F48FEF0895F0
:1019E0000AD0C0CFB1DF28F0B6DF18F0952309F098
:1019F000A2CFA7CFEBCFC7DFA8F39923D9F3552305
:101A0000C9F3950F50E0551FAA27EE27FF27BB27E4
:101A100000240894679520F4E20FF31FB41F0A1EF8
:101A2000220F331F441FAA1F6695A9F7779530F43C
:101A3000F30FB41F0A1E121E08F46395330F441FE0
:101A4000AA1F221F769599F7879520F4B40F0A1ED6
:101A5000121E631F440FAA1F221F331F8695A9F76A
:101A6000862F712D602D11249F5750408AF0E1F090
:101A700088234AF0EE0FFF1FBB1F661F771F881FCA
:101A800091505040A9F79E3F510570F054CF9ECF22
:101A90005F3FECF3983EDCF3869577956795B795B5
:101AA000F795E7959F5FC1F7FE2B880F911D9695DF
:0A1AB000879597F90895F894FFCF89
:101ABA005E00BC007701005EBCE2613FDD83C29C30
:101ACA007E20A3FD1F41009D23BE46DB65F88C11D5
:061ADA00AF32CA57E974A7
:00000001FF
